:100000000C9461000C947E000C947E000C947E0095
:100010000C947E000C947E000C947E000C947E0068
:100020000C947E000C947E000C947E000C947E0058
:100030000C947E000C947E000C947E000C947E0048
:100040000C9426020C947E000C947E000C947E008E
:100050000C947E000C947E000C947E000C947E0028
:100060000C947E000C947E00000000002400270009
:100070002A0000000000250028002B0000000000DE
:1000800023002600290004040404040404040202DA
:100090000202020203030303030301020408102007
:1000A0004080010204081020010204081020000012
:1000B0000008000201000003040700000000000027
:1000C000000011241FBECFEFD8E0DEBFCDBF11E08E
:1000D000A0E0B1E0E2EEF5E002C005900D92A230A2
:1000E000B107D9F721E0A2E0B1E001C01D92AE3125
:1000F000B207E1F70E9470020C94EF020C9400002A
:10010000833081F028F4813099F08230A1F0089595
:100110008730A9F08830B9F08430D1F48091800024
:100120008F7D03C0809180008F7780938000089539
:1001300084B58F7702C084B58F7D84BD089580918A
:10014000B0008F7703C08091B0008F7D8093B000A6
:100150000895CF93DF93282F30E0F901E255FF4F48
:100160008491F901E656FF4FD491F901EA57FF4F08
:10017000C491CC2391F081110E948000EC2FF0E01B
:10018000EE0FFF1FE458FF4FA591B491EC91ED23C2
:1001900081E090E021F480E002C080E090E0DF9117
:1001A000CF9108951F93CF93DF93282F30E0F9016B
:1001B000E255FF4F8491F901E656FF4FD491F901C2
:1001C000EA57FF4FC491CC23C1F0162F81110E9432
:1001D0008000EC2FF0E0EE0FFF1FEE58FF4FA591CF
:1001E000B4919FB7F894111104C08C91D095D82385
:1001F00002C0EC91DE2BDC939FBFDF91CF911F916A
:100200000895CF93DF9390E0FC01E656FF4F2491D1
:10021000FC01EA57FF4F8491882361F190E0880F39
:10022000991FFC01E859FF4FC591D491FC01EE588C
:10023000FF4FA591B491611109C09FB7F8948881CF
:10024000209582238883EC912E230BC0623061F4C9
:100250009FB7F8948881322F309583238883EC915F
:100260002E2B2C939FBF06C08FB7F894E8812E2BBE
:1002700028838FBFDF91CF9108952FB7F8946091B5
:100280001A0170911B0180911C0190911D012FBFDB
:100290000895CF92DF92EF92FF9280910D0181112C
:1002A0000DC00E943D016093090170930A01809383
:1002B0000B0190930C0181E080930D01C090090126
:1002C000D0900A01E0900B01F0900C0184EFC80E71
:1002D00081E0D81EE11CF11C0E943D01C616D70624
:1002E000E806F90680F40E943D01609309017093CD
:1002F0000A0180930B0190930C019091000181E021
:1003000089278093000180910001FF90EF90DF909A
:10031000CF900895CF92DF92EF92FF927C01892BCC
:1003200051F40E943D016093050170930601809392
:1003300007019093080188EE93E0E89E6001E99E32
:10034000D00CF89ED00C11240D2C000CEE08FF08E8
:100350008091050190910601A0910701B0910801DB
:10036000C80ED91EEA1EFB1E0E943D0121E0C616E2
:10037000D706E806F90608F020E0822FFF90EF90FC
:10038000DF90CF9008950E944901682F84E00E9479
:10039000D2000E944901682F85E00C94D20060E0F1
:1003A00086E00E94D20060E087E00C94D20083E0F7
:1003B0000E94A90021E0892B09F420E0822F0895F2
:1003C000CF93DF930E94D701882321F0809103010E
:1003D0008823B9F0D0910201C1E0CD276C2F86E0CF
:1003E0000E94D2006D2F87E00E94D2000E94D701A8
:1003F00081110BC080910301811107C0C0930201DC
:1004000004C081E080930301E5CFDF91CF9108958F
:100410000E94D7018823A1F081E0809304010E940B
:10042000E00180E090E00E948A0185E090E00E9477
:100430008A01811103C00E94C301F7CF0E94CF013E
:100440008091040181110C94C30108951F920F92B1
:100450000FB60F9211242F933F938F939F93AF93D7
:10046000BF9380911A0190911B01A0911C01B09142
:100470001D013091190123E0230F2D3720F401963F
:10048000A11DB11D05C026E8230F0296A11DB11DB7
:100490002093190180931A0190931B01A0931C01D2
:1004A000B0931D018091150190911601A091170143
:1004B000B09118010196A11DB11D80931501909373
:1004C0001601A0931701B0931801BF91AF919F91AE
:1004D0008F913F912F910F900FBE0F901F90189505
:1004E000789484B5826084BD84B5816084BD85B50F
:1004F000826085BD85B5816085BD80916E0081601B
:1005000080936E00109281008091810082608093C0
:1005100081008091810081608093810080918000C2
:100520008160809380008091B10084608093B100ED
:100530008091B00081608093B00080917A008460E7
:1005400080937A0080917A00826080937A00809113
:100550007A00816080937A0080917A00806880932D
:100560007A001092C10060E082E00E94010160E028
:1005700083E00E94010161E084E00E94010161E0EA
:1005800085E00E94010161E086E00E94010161E0D6
:1005900087E00E940101C0E0D0E082E00E94A90053
:1005A000892B39F00E94D701811103C009C00E9434
:1005B000CF010E940802209781F30E940000EDCF36
:1005C0000E94E00180E090E00E948A0185E090E0D6
:1005D0000E948A018111EBCF0E940802F7CFF894A4
:0205E000FFCF4B
:0205E200010016
:00000001FF
